{
    "contractName": "Loan",
    "abi": [
        {
            "inputs": [
                {
                    "internalType": "uint256",
                    "name": "loanId",
                    "type": "uint256"
                }
            ],
            "name": "getLoanStatus",
            "outputs": [
                {
                    "internalType": "string",
                    "name": "",
                    "type": "string"
                }
            ],
            "stateMutability": "view",
            "type": "function"
        },
        {
            "inputs": [],
            "name": "loanCount",
            "outputs": [
                {
                    "internalType": "uint256",
                    "name": "",
                    "type": "uint256"
                }
            ],
            "stateMutability": "view",
            "type": "function"
        },
        {
            "inputs": [
                {
                    "internalType": "uint256",
                    "name": "",
                    "type": "uint256"
                }
            ],
            "name": "loans",
            "outputs": [
                {
                    "internalType": "uint256",
                    "name": "amount",
                    "type": "uint256"
                },
                {
                    "internalType": "address",
                    "name": "borrower",
                    "type": "address"
                },
                {
                    "internalType": "uint256",
                    "name": "loanId",
                    "type": "uint256"
                },
                {
                    "internalType": "bool",
                    "name": "isRepaid",
                    "type": "bool"
                },
                {
                    "internalType": "bool",
                    "name": "isTransferred",
                    "type": "bool"
                }
            ],
            "stateMutability": "view",
            "type": "function"
        },
        {
            "inputs": [
                {
                    "internalType": "uint256",
                    "name": "loanId",
                    "type": "uint256"
                }
            ],
            "name": "repayLoan",
            "outputs": [],
            "stateMutability": "nonpayable",
            "type": "function"
        },
        {
            "inputs": [
                {
                    "internalType": "uint256",
                    "name": "amount",
                    "type": "uint256"
                }
            ],
            "name": "requestLoan",
            "outputs": [
                {
                    "internalType": "uint256",
                    "name": "",
                    "type": "uint256"
                }
            ],
            "stateMutability": "nonpayable",
            "type": "function"
        },
        {
            "inputs": [
                {
                    "internalType": "uint256",
                    "name": "loanId",
                    "type": "uint256"
                },
                {
                    "internalType": "address",
                    "name": "newBorrower",
                    "type": "address"
                }
            ],
            "name": "transferLoan",
            "outputs": [],
            "stateMutability": "nonpayable",
            "type": "function"
        }
    ],
    "bytecode": "60808060405234601557610476908161001a8239f35b5f80fdfe60806040526004361015610011575f80fd5b5f3560e01c80631c4fd41c146102945780638d5d3429146101b9578063ab7b1c8914610168578063c956004e146100e0578063ce63094d146100c35763e1ec3c681461005b575f80fd5b346100bf5760203660031901126100bf576004355f525f60205260a060405f2060ff815491600180851b03600182015416906003600282015491015491604051948552602085015260408401528181161515606084015260081c1615156080820152f35b5f80fd5b346100bf575f3660031901126100bf576020600154604051908152f35b346100bf5760403660031901126100bf576024356004356001600160a01b03821682036100bf57805f525f60205261012860018060a01b03600160405f200154163314610401565b5f90815260208190526040902060038101805461ff00191661010017905560010180546001600160a01b0319166001600160a01b03909216919091179055005b346100bf5760203660031901126100bf57600435805f525f60205261019d60018060a01b03600160405f200154163314610401565b5f525f602052600360405f2001600160ff198254161790555f80f35b346100bf5760203660031901126100bf576001545f19811461028057600101806001556101e46102e0565b906004358252600360208301923384526040810183815260608201945f865260808301945f86525f525f60205260405f209251835560018060a01b03905116600183019060018060a01b03166bffffffffffffffffffffffff60a01b825416179055516002820155019151151560ff8019845416911617825551151561ff0082549160081b169061ff0019161790556020600154604051908152f35b634e487b7160e01b5f52601160045260245ffd5b346100bf5760203660031901126100bf57602060406102b460043561033a565b815192839181835280519182918282860152018484015e5f828201840152601f01601f19168101030190f35b6040519060a0820182811067ffffffffffffffff82111761030057604052565b634e487b7160e01b5f52604160045260245ffd5b6040519190601f01601f1916820167ffffffffffffffff81118382101761030057604052565b5f525f602052608060405f2060036103506102e0565b8254815260018301546001600160a01b031660208201526002830154604082015291015460ff808216158015606085015260089290921c161515929091018290526103b657506103a06040610314565b600681526514995c185a5960d21b602082015290565b156103e0576103c56040610314565b600b81526a151c985b9cd9995c9c995960aa1b602082015290565b6103ea6040610314565b600781526650656e64696e6760c81b602082015290565b1561040857565b60405162461bcd60e51b815260206004820152601060248201526f2737ba103a3432903137b93937bbb2b960811b6044820152606490fdfea264697066735822122066a3800c13294089e5c750b7ba2b6230ae002dc7380eee7de48999d41c95813464736f6c634300081c0033",
    "sourcePath": "/workspace/loan-management-blockchain-zkp/contracts/Loan.sol",
    "compiler": {
        "name": "solc",
        "version": "0.8.28+commit.7893614a"
    },
    "functionHashes": {
        "getLoanStatus(uint256)": "1c4fd41c",
        "loanCount()": "ce63094d",
        "loans(uint256)": "e1ec3c68",
        "repayLoan(uint256)": "ab7b1c89",
        "requestLoan(uint256)": "8d5d3429",
        "transferLoan(uint256,address)": "c956004e"
    },
    "gasEstimates": {
        "creation": {
            "codeDepositCost": "228400",
            "executionCost": "276",
            "totalCost": "228676"
        },
        "external": {
            "getLoanStatus(uint256)": "9181",
            "loanCount()": "2336",
            "loans(uint256)": "8869",
            "repayLoan(uint256)": "26696",
            "requestLoan(uint256)": "143746",
            "transferLoan(uint256,address)": "51042"
        }
    }
}