{
  "_format": "hh-sol-artifact-1",
  "contractName": "LoanManagement",
  "sourceName": "contracts/LoanManagement.sol",
  "abi": [
    {
      "anonymous": false,
      "inputs": [
        {
          "indexed": false,
          "internalType": "uint256",
          "name": "loanId",
          "type": "uint256"
        },
        {
          "indexed": false,
          "internalType": "uint256",
          "name": "amount",
          "type": "uint256"
        },
        {
          "indexed": false,
          "internalType": "uint256",
          "name": "interestRate",
          "type": "uint256"
        },
        {
          "indexed": false,
          "internalType": "uint256",
          "name": "repaymentPeriod",
          "type": "uint256"
        },
        {
          "indexed": false,
          "internalType": "address",
          "name": "borrower",
          "type": "address"
        }
      ],
      "name": "LoanCreated",
      "type": "event"
    },
    {
      "anonymous": false,
      "inputs": [
        {
          "indexed": false,
          "internalType": "uint256",
          "name": "loanId",
          "type": "uint256"
        }
      ],
      "name": "LoanRepaid",
      "type": "event"
    },
    {
      "inputs": [
        {
          "internalType": "uint256",
          "name": "income",
          "type": "uint256"
        },
        {
          "internalType": "uint256",
          "name": "creditScore",
          "type": "uint256"
        }
      ],
      "name": "generateLoanRequestZkpProof",
      "outputs": [
        {
          "internalType": "bytes32",
          "name": "",
          "type": "bytes32"
        }
      ],
      "stateMutability": "pure",
      "type": "function"
    },
    {
      "inputs": [
        {
          "internalType": "uint256",
          "name": "loanId",
          "type": "uint256"
        }
      ],
      "name": "generateZkpProof",
      "outputs": [
        {
          "internalType": "bytes32",
          "name": "",
          "type": "bytes32"
        }
      ],
      "stateMutability": "view",
      "type": "function"
    },
    {
      "inputs": [
        {
          "internalType": "uint256",
          "name": "loanId",
          "type": "uint256"
        }
      ],
      "name": "getLoanDetails",
      "outputs": [
        {
          "internalType": "uint256",
          "name": "",
          "type": "uint256"
        },
        {
          "internalType": "uint256",
          "name": "",
          "type": "uint256"
        },
        {
          "internalType": "uint256",
          "name": "",
          "type": "uint256"
        },
        {
          "internalType": "address",
          "name": "",
          "type": "address"
        },
        {
          "internalType": "bool",
          "name": "",
          "type": "bool"
        }
      ],
      "stateMutability": "view",
      "type": "function"
    },
    {
      "inputs": [],
      "name": "loanCount",
      "outputs": [
        {
          "internalType": "uint256",
          "name": "",
          "type": "uint256"
        }
      ],
      "stateMutability": "view",
      "type": "function"
    },
    {
      "inputs": [
        {
          "internalType": "uint256",
          "name": "",
          "type": "uint256"
        }
      ],
      "name": "loans",
      "outputs": [
        {
          "internalType": "uint256",
          "name": "amount",
          "type": "uint256"
        },
        {
          "internalType": "uint256",
          "name": "interestRate",
          "type": "uint256"
        },
        {
          "internalType": "uint256",
          "name": "repaymentPeriod",
          "type": "uint256"
        },
        {
          "internalType": "address",
          "name": "borrower",
          "type": "address"
        },
        {
          "internalType": "bool",
          "name": "isActive",
          "type": "bool"
        }
      ],
      "stateMutability": "view",
      "type": "function"
    },
    {
      "inputs": [],
      "name": "minCreditScore",
      "outputs": [
        {
          "internalType": "uint256",
          "name": "",
          "type": "uint256"
        }
      ],
      "stateMutability": "view",
      "type": "function"
    },
    {
      "inputs": [],
      "name": "minIncome",
      "outputs": [
        {
          "internalType": "uint256",
          "name": "",
          "type": "uint256"
        }
      ],
      "stateMutability": "view",
      "type": "function"
    },
    {
      "inputs": [
        {
          "internalType": "uint256",
          "name": "loanId",
          "type": "uint256"
        },
        {
          "internalType": "bytes32",
          "name": "proofHash",
          "type": "bytes32"
        }
      ],
      "name": "repayLoanWithProof",
      "outputs": [],
      "stateMutability": "payable",
      "type": "function"
    },
    {
      "inputs": [
        {
          "internalType": "uint256",
          "name": "amount",
          "type": "uint256"
        },
        {
          "internalType": "uint256",
          "name": "interestRate",
          "type": "uint256"
        },
        {
          "internalType": "uint256",
          "name": "repaymentPeriod",
          "type": "uint256"
        },
        {
          "internalType": "uint256",
          "name": "income",
          "type": "uint256"
        },
        {
          "internalType": "uint256",
          "name": "creditScore",
          "type": "uint256"
        },
        {
          "internalType": "bytes32",
          "name": "proofHash",
          "type": "bytes32"
        }
      ],
      "name": "requestLoanWithProof",
      "outputs": [],
      "stateMutability": "nonpayable",
      "type": "function"
    }
  ],
  "bytecode": "0x608060405261c35060025561028a60035534801561001c57600080fd5b506112ac8061002c6000396000f3fe6080604052600436106100865760003560e01c806376f79b101161005957806376f79b101461014e578063a2acb9c714610179578063a5b18868146101a4578063ce63094d146101e1578063e1ec3c681461020c57610086565b806301b65cc21461008b5780631ac76f0f146100a757806359899853146100e457806366877b8d1461010d575b600080fd5b6100a560048036038101906100a09190610a00565b61024d565b005b3480156100b357600080fd5b506100ce60048036038101906100c99190610a40565b6104d5565b6040516100db9190610a7c565b60405180910390f35b3480156100f057600080fd5b5061010b60048036038101906101069190610a97565b6105eb565b005b34801561011957600080fd5b50610134600480360381019061012f9190610a40565b610803565b604051610145959493929190610b8f565b60405180910390f35b34801561015a57600080fd5b506101636108e7565b6040516101709190610be2565b60405180910390f35b34801561018557600080fd5b5061018e6108ed565b60405161019b9190610be2565b60405180910390f35b3480156101b057600080fd5b506101cb60048036038101906101c69190610bfd565b6108f3565b6040516101d89190610a7c565b60405180910390f35b3480156101ed57600080fd5b506101f6610926565b6040516102039190610be2565b60405180910390f35b34801561021857600080fd5b50610233600480360381019061022e9190610a40565b61092c565b604051610244959493929190610b8f565b60405180910390f35b60008083815260200190815260200160002060030160149054906101000a900460ff166102af576040517f08c379a00000000000000000000000000000000000000000000000000000000081526004016102a690610c9a565b60405180910390fd5b60008083815260200190815260200160002060030160009054906101000a900473ffffffffffffffffffffffffffffffffffffffff1673ffffffffffffffffffffffffffffffffffffffff163373ffffffffffffffffffffffffffffffffffffffff1614610352576040517f08c379a000000000000000000000000000000000000000000000000000000000815260040161034990610d2c565b60405180910390fd5b60006064600080858152602001908152602001600020600101546000808681526020019081526020016000206000015461038c9190610d7b565b6103969190610e04565b600080858152602001908152602001600020600001546103b69190610e35565b9050803410156103fb576040517f08c379a00000000000000000000000000000000000000000000000000000000081526004016103f290610efd565b60405180910390fd5b60003382604051602001610410929190610f86565b60405160208183030381529060405280519060200120905080831461046a576040517f08c379a000000000000000000000000000000000000000000000000000000000815260040161046190610ffe565b60405180910390fd5b600080600086815260200190815260200160002060030160146101000a81548160ff0219169083151502179055507f9a7851747cd7ffb3fe0a32caf3da48b31f27cebe131267051640f8b72fc47186846040516104c79190610be2565b60405180910390a150505050565b6000806000808481526020019081526020016000206040518060a00160405290816000820154815260200160018201548152602001600282015481526020016003820160009054906101000a900473ffffffffffffffffffffffffffffffffffffffff1673ffffffffffffffffffffffffffffffffffffffff1673ffffffffffffffffffffffffffffffffffffffff1681526020016003820160149054906101000a900460ff1615151515815250509050600060648260200151836000015161059e9190610d7b565b6105a89190610e04565b82600001516105b79190610e35565b905033816040516020016105cc929190610f86565b6040516020818303038152906040528051906020012092505050919050565b600254831015610630576040517f08c379a000000000000000000000000000000000000000000000000000000000815260040161062790611090565b60405180910390fd5b600354821015610675576040517f08c379a000000000000000000000000000000000000000000000000000000000815260040161066c90611122565b60405180910390fd5b600061068184846108f3565b90508082146106c5576040517f08c379a00000000000000000000000000000000000000000000000000000000081526004016106bc9061118e565b60405180910390fd5b600160008154809291906106d8906111ae565b91905055506040518060a001604052808881526020018781526020018681526020013373ffffffffffffffffffffffffffffffffffffffff16815260200160011515815250600080600154815260200190815260200160002060008201518160000155602082015181600101556040820151816002015560608201518160030160006101000a81548173ffffffffffffffffffffffffffffffffffffffff021916908373ffffffffffffffffffffffffffffffffffffffff16021790555060808201518160030160146101000a81548160ff0219169083151502179055509050507fbdd17b9b22470144445112e1b5c1c1e4b523e00b12eb28aae0f658b52c43f8fc600154888888336040516107f29594939291906111f7565b60405180910390a150505050505050565b6000806000806000806000808881526020019081526020016000206040518060a00160405290816000820154815260200160018201548152602001600282015481526020016003820160009054906101000a900473ffffffffffffffffffffffffffffffffffffffff1673ffffffffffffffffffffffffffffffffffffffff1673ffffffffffffffffffffffffffffffffffffffff1681526020016003820160149054906101000a900460ff161515151581525050905080600001518160200151826040015183606001518460800151955095509550955095505091939590929450565b60035481565b60025481565b6000828260405160200161090892919061124a565b60405160208183030381529060405280519060200120905092915050565b60015481565b60006020528060005260406000206000915090508060000154908060010154908060020154908060030160009054906101000a900473ffffffffffffffffffffffffffffffffffffffff16908060030160149054906101000a900460ff16905085565b600080fd5b6000819050919050565b6109a781610994565b81146109b257600080fd5b50565b6000813590506109c48161099e565b92915050565b6000819050919050565b6109dd816109ca565b81146109e857600080fd5b50565b6000813590506109fa816109d4565b92915050565b60008060408385031215610a1757610a1661098f565b5b6000610a25858286016109b5565b9250506020610a36858286016109eb565b9150509250929050565b600060208284031215610a5657610a5561098f565b5b6000610a64848285016109b5565b91505092915050565b610a76816109ca565b82525050565b6000602082019050610a916000830184610a6d565b92915050565b60008060008060008060c08789031215610ab457610ab361098f565b5b6000610ac289828a016109b5565b9650506020610ad389828a016109b5565b9550506040610ae489828a016109b5565b9450506060610af589828a016109b5565b9350506080610b0689828a016109b5565b92505060a0610b1789828a016109eb565b9150509295509295509295565b610b2d81610994565b82525050565b600073ffffffffffffffffffffffffffffffffffffffff82169050919050565b6000610b5e82610b33565b9050919050565b610b6e81610b53565b82525050565b60008115159050919050565b610b8981610b74565b82525050565b600060a082019050610ba46000830188610b24565b610bb16020830187610b24565b610bbe6040830186610b24565b610bcb6060830185610b65565b610bd86080830184610b80565b9695505050505050565b6000602082019050610bf76000830184610b24565b92915050565b60008060408385031215610c1457610c1361098f565b5b6000610c22858286016109b5565b9250506020610c33858286016109b5565b9150509250929050565b600082825260208201905092915050565b7f4c6f616e206973206e6f74206163746976652e00000000000000000000000000600082015250565b6000610c84601383610c3d565b9150610c8f82610c4e565b602082019050919050565b60006020820190508181036000830152610cb381610c77565b9050919050565b7f4f6e6c792074686520626f72726f7765722063616e207265706179207468652060008201527f6c6f616e2e000000000000000000000000000000000000000000000000000000602082015250565b6000610d16602583610c3d565b9150610d2182610cba565b604082019050919050565b60006020820190508181036000830152610d4581610d09565b9050919050565b7f4e487b7100000000000000000000000000000000000000000000000000000000600052601160045260246000fd5b6000610d8682610994565b9150610d9183610994565b9250817fffffffffffffffffffffffffffffffffffffffffffffffffffffffffffffffff0483118215151615610dca57610dc9610d4c565b5b828202905092915050565b7f4e487b7100000000000000000000000000000000000000000000000000000000600052601260045260246000fd5b6000610e0f82610994565b9150610e1a83610994565b925082610e2a57610e29610dd5565b5b828204905092915050565b6000610e4082610994565b9150610e4b83610994565b9250827fffffffffffffffffffffffffffffffffffffffffffffffffffffffffffffffff03821115610e8057610e7f610d4c565b5b828201905092915050565b7f496e73756666696369656e742066756e647320746f207265706179207468652060008201527f6c6f616e2e000000000000000000000000000000000000000000000000000000602082015250565b6000610ee7602583610c3d565b9150610ef282610e8b565b604082019050919050565b60006020820190508181036000830152610f1681610eda565b9050919050565b60008160601b9050919050565b6000610f3582610f1d565b9050919050565b6000610f4782610f2a565b9050919050565b610f5f610f5a82610b53565b610f3c565b82525050565b6000819050919050565b610f80610f7b82610994565b610f65565b82525050565b6000610f928285610f4e565b601482019150610fa28284610f6f565b6020820191508190509392505050565b7f496e76616c69642070726f6f66206f662072657061796d656e742e0000000000600082015250565b6000610fe8601b83610c3d565b9150610ff382610fb2565b602082019050919050565b6000602082019050818103600083015261101781610fdb565b9050919050565b7f496e636f6d6520646f6573206e6f74206d65657420746865206d696e696d756d60008201527f20726571756972656d656e742e00000000000000000000000000000000000000602082015250565b600061107a602d83610c3d565b91506110858261101e565b604082019050919050565b600060208201905081810360008301526110a98161106d565b9050919050565b7f4372656469742073636f726520646f6573206e6f74206d65657420746865206d60008201527f696e696d756d20726571756972656d656e742e00000000000000000000000000602082015250565b600061110c603383610c3d565b9150611117826110b0565b604082019050919050565b6000602082019050818103600083015261113b816110ff565b9050919050565b7f496e76616c69642070726f6f6620666f72206c6f616e20726571756573742e00600082015250565b6000611178601f83610c3d565b915061118382611142565b602082019050919050565b600060208201905081810360008301526111a78161116b565b9050919050565b60006111b982610994565b91507fffffffffffffffffffffffffffffffffffffffffffffffffffffffffffffffff8214156111ec576111eb610d4c565b5b600182019050919050565b600060a08201905061120c6000830188610b24565b6112196020830187610b24565b6112266040830186610b24565b6112336060830185610b24565b6112406080830184610b65565b9695505050505050565b60006112568285610f6f565b6020820191506112668284610f6f565b602082019150819050939250505056fea26469706673582212204336f16b4315a31febdde85b2c192537c108ccd7f682ea430589aa997fd5688c64736f6c634300080b0033",
  "linkReferences": {},
  "deployedLinkReferences": {}
}